S00F00004C465F504944322E7372656315
S113000045C0000060C000005EC000005CC000008D
S11300105AC0000058C0000056C0000054C0000080
S113002052C0000050C000004EC000004CC0000090
S11300304AC0000048C0000046C0000044C00000A0
S113004042C0000040C000003EC000003CC00000B0
S11300503AC0000038C0000036C0000034C00000C0
S113006032C0000030C000002EC000002CC00000D0
S11300702AC0000028C0000026C0000024C00000E0
S113008022C0000020C000001EC0000011241FBEBA
S1130090CFEFD0E1DEBFCDBF11E0A0E0B1E0E2EDF3
S11300A0F7E000E00BBF02C007900D92A031B1074A
S11300B0D9F721E0A0E1B1E001C01D92AC31B20753
S11300C0E1F710D184C39CCF8FB5826A8FBD8EB502
S11300D089618EBD87B3806687BB88EE93E097BD48
S11300E086BD08958F929F92AF92BF92EF92FF9236
S11300F00F931F93CF93DF93C0E0D0E0812C912C1A
S11301005401E12CF12C00E010E080B390E00C2EBF
S113011002C0959587950A94E2F780FF1AC0BE0144
S11301200D2E000C880B990B3BD29B01AC016E2D5C
S11301307F2D802F912F31D1E62EF72E082F192FE6
S113014020E030E040E85FE3C501B40126D14B0173
S11301505C012196C830D105C1F620E030E0A90148
S1130160C501B4017ED1882361F0A50194016E2DEF
S11301707F2D802F912F79D1562F472F382F292F5C
S113018004C05E2D4F2D302F212F652F742F832F08
S1130190922FDF91CF911F910F91FF90EF90BF901D
S11301A0AF909F908F9008954F925F926F927F923D
S11301B08F929F92AF92BF92CF92DF92EF92FF9273
S11301C00F931F93CF93DF936B017C012091080160
S11301D03091090140910A0150910B0195D22B01F4
S11301E03C01209114013091150140911601509168
S11301F01701C701B60188D2209110013091110175
S11302004091120150911301C8D04B015C016093DD
S113021010017093110180931201909313012091A6
S113022018013091190140911A0150911B01C70125
S1130230B6016AD26B017C01A5019401C301B2012C
S1130240ACD09B01AC01C701B601A7D0062F172F74
S1130250D82FC92FC0900001D0900101E090020175
S1130260F0900301A70196014BD218168CF0F7FA0F
S1130270F094F7F8F094A7019601602F712F8D2F59
S11302809C2FEFD0882324F0C02ED12EED2EFC2EEF
S1130290C701B601DF91CF911F910F91FF90EF90AD
S11302A0DF90CF90BF90AF909F908F907F906F9092
S11302B05F904F900895009741F08130910541F08F
S11302C0019641F41F9AC0980895C09A1F9A089500
S11302D01F98C09A089511BAB89A179A80E090E0CE
S11302E0EACF089560E083E390E038D0EDDEF3DFF9
S11302F0F9DE9B01AC0160910C0170910D018091BC
S11303000E0190910F0148D04FDF17D1072E000C3A
S1130310880B990B45D16B017C012091040130912C
S11303200501409106015091070137D00BD179BDE9
S113033068BDA70196016091040170910501809147
S113034006019091070128D0FDD07BBD6ABD8FE1E5
S11303509EE40197F1F700C00000CACF78946623A9
S113036079F09093980080939900EAE9F0E0808115
S113037088618083EDE9F0E0808186608083089560
S11303809093900089B98AB188618AB9E5E9F0E06F
S113039080818660808308955058BB27AA270ED099
S11303A075C166D130F06BD120F031F49F3F11F468
S11303B01EF45BC10EF4E095E7FB51C1E92F77D140
S11303C080F3BA17620773078407950718F071F46E
S11303D09EF58FC10EF4E0950B2EBA2FA02D0B01C4
S11303E0B90190010C01CA01A0011124FF27591B76
S11303F099F0593F50F4503E68F11A16F040A22F7C
S1130400232F342F4427585FF3CF469537952795EC
S1130410A795F0405395C9F77EF41F16BA0B620BEB
S1130420730B840BBAF09150A1F0FF0FBB1F661F32
S1130430771F881FC2F70EC0BA0F621F731F841F75
S113044048F4879577956795B795F7959E3F08F09B
S1130450B3CF9395880F08F09927EE0F979587955A
S11304600895D9D008F481E008950CD00FC107D1C4
S113047040F0FED030F021F45F3F19F0F0C051118C
S113048039C1F3C014D198F39923C9F35523B1F3B7
S1130490951B550BBB27AA2762177307840738F0EF
S11304A09F5F5F4F220F331F441FAA1FA9F333D04E
S11304B00E2E3AF0E0E830D091505040E695001C02
S11304C0CAF729D0FE2F27D0660F771F881FBB1FBE
S11304D0261737074807AB07B0E809F0BB0B802D98
S11304E0BF01FF2793585F4F2AF09E3F510568F0E4
S11304F0B6C000C15F3FECF3983EDCF38695779578
S11305006795B795F7959F5FC9F7880F911D9695E5
S1130510879597F90895E1E0660F771F881FBB1F41
S1130520621773078407BA0720F0621B730B840BEE
S1130530BA0BEE1F88F7E095089504D06894B111C2
S1130540D9C00895BCD088F09F5790F0B92F99274F
S1130550B751A0F0D1F0660F771F881F991F1AF0CA
S1130560BA95C9F712C0B13081F0C3D0B1E0089593
S1130570C0C0672F782F8827B85F39F0B93FCCF314
S1130580869577956795B395D9F73EF490958095C0
S1130590709561957F4F8F4F9F4F0895E89409C0E0
S11305A097FB3EF490958095709561957F4F8F4FA2
S11305B09F4F9923A9F0F92F96E9BB279395F695B8
S11305C0879577956795B795F111F8CFFAF4BB0F36
S11305D011F460FF1BC06F5F7F4F8F4F9F4F16C09A
S11305E0882311F096E911C0772321F09EE8872F24
S11305F0762F05C0662371F096E8862F70E060E0E0
S11306002AF09A95660F771F881FDAF7880F969558
S1130610879597F90895990F0008550FAA0BE0E8FC
S1130620FEEF16161706E807F907C0F012161306B0
S1130630E407F50798F0621B730B840B950B39F4F0
S11306400A2661F0232B242B252B21F408950A2656
S113065009F4A140A6958FEF811D811D089597F996
S11306609F6780E870E060E008959FEF80EC089554
S113067000240A941616170618060906089500247D
S11306800A9412161306140605060895092E0394F7
S1130690000C11F4882352F0BB0F40F4BF2B11F46B
S11306A060FF04C06F5F7F4F8F4F9F4F089557FDCA
S11306B09058440F551F59F05F3F71F04795880FCC
S11306C097FB991F61F09F3F79F087950895121663
S11306D013061406551FF2CF4695F1DF08C016160F
S11306E017061806991FF1CF8695710561050894C0
S11306F00895E894BB2766277727CB0197F90895D7
S11307008ADF08F48FEF08950BD0C0CFB1DF28F053
S1130710B6DF18F0952309F0A2CFA7CF1124EACFB2
S1130720C6DFA0F3959FD1F3950F50E0551F629F4C
S1130730F001729FBB27F00DB11D639FAA27F00D36
S1130740B11DAA1F649F6627B00DA11D661F829F5D
S11307502227B00DA11D621F739FB00DA11D621F42
S1130760839FA00D611D221F749F3327A00D611D5F
S1130770231F849F600D211D822F762F6A2F112441
S11307809F5750408AF0E1F088234AF0EE0FFF1F94
S1130790BB1F661F771F881F91505040A9F79E3FCB
S11307A0510570F05CCFA6CF5F3FECF3983EDCF3CD
S11307B0869577956795B795F795E7959F5FC1F708
S11307C0FE2B880F911D9695879597F90895F894B7
S10507D0FFCF55
S11307D20000FA430000FA430000164300006040A0
S9030000FC
