:1000000045C0000060C000005EC000005CC0000091
:100010005AC0000058C0000056C0000054C0000084
:1000200052C0000050C000004EC000004CC0000094
:100030004AC0000048C0000046C0000044C00000A4
:100040004CC1000040C000003EC000003CC00000A9
:100050003AC0000038C0000036C0000034C00000C4
:1000600032C0000030C000002EC000002CC00000D4
:100070002AC0000028C0000026C0000024C00000E4
:1000800022C0000020C000001EC0000011241FBEBE
:10009000CFEFD0E1DEBFCDBF11E0A0E0B1E0E6E5FB
:1000A000F8E000E00BBF02C007900D92A431B10749
:1000B000D9F721E0A4E1B1E001C01D92A032B2075E
:1000C000E1F7A8D1C6C39CCF8FB5826A8FBD8EB52C
:1000D00089618EBD87B3806687BB88EE93E097BD4C
:1000E00086BD08958F929F92AF92BF92CF92DF927A
:1000F000EF92FF92CF93DF93C0E0D0E0C12CD12CE0
:1001000076014601570180B390E00C2E02C0959510
:1001100087950A94E2F780FF16C0BE010D2E000CF1
:10012000880B990B7FD29B01AC01C501B40177D13B
:100130004B015C0120E030E040E85FE3C701B6011D
:100140006ED16B017C012196C830D105E1F620E02B
:1001500030E0A901C701B601C6D1882331F0A7015B
:100160009601C501B401C3D108C060911C01709112
:100170001D0180911E0190911F01DF91CF91FF9091
:10018000EF90DF90CF90BF90AF909F908F900895A9
:100190004F925F926F927F928F929F92AF92BF9297
:1001A000CF92DF92EF92FF920F931F93CF93DF9343
:1001B0006B017C0120910C0130910D0140910E01E9
:1001C00050910F01E3D22B013C0120911801309195
:1001D000190140911A0150911B01C701B601D6D2F5
:1001E0002091140130911501409116015091170191
:1001F00016D14B015C01609314017093150180933B
:100200001601909317012091080130910901409146
:100210000A0150910B01C701B601B8D26B017C01F4
:10022000A5019401C301B201FAD09B01AC01C70141
:10023000B601F5D0062F172FD82FC92FC090000177
:10024000D0900101E0900201F0900301A701960116
:1002500099D218168CF0F7FAF094F7F8F094A701F9
:100260009601602F712F8D2F9C2F3DD1882324F074
:10027000C02ED12EED2EFC2EC701B601DF91CF91FD
:100280001F910F91FF90EF90DF90CF90BF90AF90B4
:100290009F908F907F906F905F904F900895009700
:1002A00041F08130910541F0019641F41F9AC098C8
:1002B0000895C09A1F9A08951F98C09A089511BA78
:1002C000B89A179A80E090E0EACF0895789483E096
:1002D00083BF12BE81E087BF08951F920F920FB6B1
:1002E0000F9211240BB60F92CF92DF92EF92FF92F2
:1002F0002F933F934F935F936F937F938F939F932E
:10030000AF93BF93CF93DF93EF93FF93EBDE9B010C
:10031000AC016091100170911101809112019091D6
:1003200013017CD035DF4BD16B017C01DBDE6093A8
:100330001C0170931D0180931E0190931F01609119
:10034000000170910101809102019091030137D168
:10035000C616D70674F081E090E0A1DF84EF91E04B
:100360009BBD8ABD99BD88BD83993BC0849BFCCF52
:1003700038C07195619571096C157D0574F08FEF2A
:100380009FEF8DDF84EF91E09BBD8ABD99BD88BD55
:10039000839927C0849BFCCF24C0B601DD0C880B59
:1003A000990B40D16B017C01209104013091050132
:1003B000409106015091070132D006D179BD68BD48
:1003C000A7019601609104017091050180910601D9
:1003D0009091070123D0F8D07BBD6ABD80E090E00A
:1003E0005EDFFF91EF91DF91CF91BF91AF919F9130
:1003F0008F917F916F915F914F913F912F91FF90DE
:10040000EF90DF90CF900F900BBE0F900FBE0F902C
:100410001F90189559DE53DF59DFFFCF5058BB2787
:10042000AA270ED075C166D130F06BD120F031F41F
:100430009F3F11F41EF45BC10EF4E095E7FB51C140
:10044000E92F77D180F3BA176207730784079507FE
:1004500018F071F49EF58FC10EF4E0950B2EBA2FB3
:10046000A02D0B01B90190010C01CA01A0011124BA
:10047000FF27591B99F0593F50F4503E68F11A1666
:10048000F040A22F232F342F4427585FF3CF4695F7
:1004900037952795A795F0405395C9F77EF41F1619
:1004A000BA0B620B730B840BBAF09150A1F0FF0FE3
:1004B000BB1F661F771F881FC2F70EC0BA0F621FCF
:1004C000731F841F48F4879577956795B795F795BF
:1004D0009E3F08F0B3CF9395880F08F09927EE0F51
:1004E000979587950895D9D008F481E008950CD0A8
:1004F0000FC107D140F0FED030F021F45F3F19F07A
:10050000F0C0511139C1F3C014D198F39923C9F344
:100510005523B1F3951B550BBB27AA276217730709
:10052000840738F09F5F5F4F220F331F441FAA1FBD
:10053000A9F333D00E2E3AF0E0E830D0915050407D
:10054000E695001CCAF729D0FE2F27D0660F771F2B
:10055000881FBB1F261737074807AB07B0E809F00D
:10056000BB0B802DBF01FF2793585F4F2AF09E3FA2
:10057000510568F0B6C000C15F3FECF3983EDCF374
:10058000869577956795B795F7959F5FC9F7880F1B
:10059000911D9695879597F90895E1E0660F771F6D
:1005A000881FBB1F621773078407BA0720F0621BFE
:1005B000730B840BBA0BEE1F88F7E095089504D0F7
:1005C0006894B111D9C00895BCD088F09F5790F0BD
:1005D000B92F9927B751A0F0D1F0660F771F881F68
:1005E000991F1AF0BA95C9F712C0B13081F0C3D083
:1005F000B1E00895C0C0672F782F8827B85F39F021
:10060000B93FCCF3869577956795B395D9F73EF4C6
:1006100090958095709561957F4F8F4F9F4F08956E
:10062000E89409C097FB3EF490958095709561958C
:100630007F4F8F4F9F4F9923A9F0F92F96E9BB2742
:100640009395F695879577956795B795F111F8CFBE
:10065000FAF4BB0F11F460FF1BC06F5F7F4F8F4F29
:100660009F4F16C0882311F096E911C0772321F01F
:100670009EE8872F762F05C0662371F096E8862FB7
:1006800070E060E02AF09A95660F771F881FDAF70E
:10069000880F9695879597F90895990F0008550F3B
:1006A000AA0BE0E8FEEF16161706E807F907C0F0F8
:1006B00012161306E407F50798F0621B730B840B00
:1006C000950B39F40A2661F0232B242B252B21F4DA
:1006D00008950A2609F4A140A6958FEF811D811D7A
:1006E000089597F99F6780E870E060E008959FEFB4
:1006F00080EC089500240A941616170618060906B9
:10070000089500240A941216130614060506089587
:10071000092E0394000C11F4882352F0BB0F40F40F
:10072000BF2B11F460FF04C06F5F7F4F8F4F9F4F4F
:10073000089557FD9058440F551F59F05F3F71F0D1
:100740004795880F97FB991F61F09F3F79F0879538
:100750000895121613061406551FF2CF4695F1DFC1
:1007600008C0161617061806991FF1CF8695710551
:10077000610508940895E894BB2766277727CB0185
:1007800097F908958ADF08F48FEF08950BD0C0CF52
:10079000B1DF28F0B6DF18F0952309F0A2CFA7CF7C
:1007A0001124EACFC6DFA0F3959FD1F3950F50E057
:1007B000551F629FF001729FBB27F00DB11D639F13
:1007C000AA27F00DB11DAA1F649F6627B00DA11DB9
:1007D000661F829F2227B00DA11D621F739FB00D5F
:1007E000A11D621F839FA00D611D221F749F3327CF
:1007F000A00D611D231F849F600D211D822F762F68
:100800006A2F11249F5750408AF0E1F088234AF064
:10081000EE0FFF1FBB1F661F771F881F91505040B0
:10082000A9F79E3F510570F05CCFA6CF5F3FECF378
:10083000983EDCF3869577956795B795F795E7959C
:100840009F5FC1F7FE2B880F911D9695879597F9AD
:060850000895F894FFCFAB
:100856000000FA430000FA43000020410000F04285
:0408660000006040EE
:00000001FF
